{
  "contractName": "NFTMarket",
  "abi": [
    {
      "inputs": [],
      "stateMutability": "nonpayable",
      "type": "constructor"
    },
    {
      "anonymous": false,
      "inputs": [
        {
          "indexed": true,
          "internalType": "uint256",
          "name": "itemId",
          "type": "uint256"
        },
        {
          "indexed": true,
          "internalType": "address",
          "name": "nftContract",
          "type": "address"
        },
        {
          "indexed": true,
          "internalType": "uint256",
          "name": "tokenId",
          "type": "uint256"
        },
        {
          "indexed": false,
          "internalType": "address",
          "name": "seller",
          "type": "address"
        },
        {
          "indexed": false,
          "internalType": "address",
          "name": "owner",
          "type": "address"
        },
        {
          "indexed": false,
          "internalType": "uint256",
          "name": "price",
          "type": "uint256"
        },
        {
          "indexed": false,
          "internalType": "bool",
          "name": "sold",
          "type": "bool"
        },
        {
          "indexed": false,
          "internalType": "bool",
          "name": "cancelled",
          "type": "bool"
        }
      ],
      "name": "MarketItemCancelled",
      "type": "event"
    },
    {
      "anonymous": false,
      "inputs": [
        {
          "indexed": true,
          "internalType": "uint256",
          "name": "itemId",
          "type": "uint256"
        },
        {
          "indexed": true,
          "internalType": "address",
          "name": "nftContract",
          "type": "address"
        },
        {
          "indexed": true,
          "internalType": "uint256",
          "name": "tokenId",
          "type": "uint256"
        },
        {
          "indexed": false,
          "internalType": "address",
          "name": "seller",
          "type": "address"
        },
        {
          "indexed": false,
          "internalType": "address",
          "name": "owner",
          "type": "address"
        },
        {
          "indexed": false,
          "internalType": "uint256",
          "name": "price",
          "type": "uint256"
        },
        {
          "indexed": false,
          "internalType": "bool",
          "name": "sold",
          "type": "bool"
        },
        {
          "indexed": false,
          "internalType": "bool",
          "name": "cancelled",
          "type": "bool"
        }
      ],
      "name": "MarketItemCreated",
      "type": "event"
    },
    {
      "anonymous": false,
      "inputs": [
        {
          "indexed": true,
          "internalType": "uint256",
          "name": "itemId",
          "type": "uint256"
        },
        {
          "indexed": true,
          "internalType": "address",
          "name": "nftContract",
          "type": "address"
        },
        {
          "indexed": true,
          "internalType": "uint256",
          "name": "tokenId",
          "type": "uint256"
        },
        {
          "indexed": false,
          "internalType": "address",
          "name": "seller",
          "type": "address"
        },
        {
          "indexed": false,
          "internalType": "address",
          "name": "owner",
          "type": "address"
        },
        {
          "indexed": false,
          "internalType": "uint256",
          "name": "price",
          "type": "uint256"
        },
        {
          "indexed": false,
          "internalType": "bool",
          "name": "sold",
          "type": "bool"
        },
        {
          "indexed": false,
          "internalType": "bool",
          "name": "cancelled",
          "type": "bool"
        }
      ],
      "name": "MarketItemSold",
      "type": "event"
    },
    {
      "inputs": [],
      "name": "name",
      "outputs": [
        {
          "internalType": "string",
          "name": "",
          "type": "string"
        }
      ],
      "stateMutability": "view",
      "type": "function",
      "constant": true
    },
    {
      "inputs": [],
      "name": "symbol",
      "outputs": [
        {
          "internalType": "string",
          "name": "",
          "type": "string"
        }
      ],
      "stateMutability": "view",
      "type": "function",
      "constant": true
    },
    {
      "inputs": [],
      "name": "currentItemId",
      "outputs": [
        {
          "internalType": "uint256",
          "name": "",
          "type": "uint256"
        }
      ],
      "stateMutability": "view",
      "type": "function",
      "constant": true
    },
    {
      "inputs": [],
      "name": "getListingPrice",
      "outputs": [
        {
          "internalType": "uint256",
          "name": "",
          "type": "uint256"
        }
      ],
      "stateMutability": "view",
      "type": "function",
      "constant": true
    },
    {
      "inputs": [
        {
          "internalType": "address",
          "name": "nftContract",
          "type": "address"
        },
        {
          "internalType": "uint256",
          "name": "tokenId",
          "type": "uint256"
        },
        {
          "internalType": "uint256",
          "name": "price",
          "type": "uint256"
        }
      ],
      "name": "createMarketItem",
      "outputs": [],
      "stateMutability": "payable",
      "type": "function",
      "payable": true
    },
    {
      "inputs": [
        {
          "internalType": "address",
          "name": "nftContract",
          "type": "address"
        },
        {
          "internalType": "uint256",
          "name": "itemId",
          "type": "uint256"
        }
      ],
      "name": "createMarketSale",
      "outputs": [],
      "stateMutability": "payable",
      "type": "function",
      "payable": true
    },
    {
      "inputs": [
        {
          "internalType": "address",
          "name": "nftContract",
          "type": "address"
        },
        {
          "internalType": "uint256",
          "name": "itemId",
          "type": "uint256"
        }
      ],
      "name": "cancelMarketSale",
      "outputs": [],
      "stateMutability": "payable",
      "type": "function",
      "payable": true
    },
    {
      "inputs": [
        {
          "internalType": "uint256",
          "name": "itemId",
          "type": "uint256"
        }
      ],
      "name": "resellItem",
      "outputs": [],
      "stateMutability": "nonpayable",
      "type": "function"
    },
    {
      "inputs": [],
      "name": "fetchMarketItems",
      "outputs": [
        {
          "components": [
            {
              "internalType": "uint256",
              "name": "itemId",
              "type": "uint256"
            },
            {
              "internalType": "address",
              "name": "nftContract",
              "type": "address"
            },
            {
              "internalType": "uint256",
              "name": "tokenId",
              "type": "uint256"
            },
            {
              "internalType": "address payable",
              "name": "seller",
              "type": "address"
            },
            {
              "internalType": "address payable",
              "name": "owner",
              "type": "address"
            },
            {
              "internalType": "uint256",
              "name": "price",
              "type": "uint256"
            },
            {
              "internalType": "bool",
              "name": "sold",
              "type": "bool"
            },
            {
              "internalType": "bool",
              "name": "cancelled",
              "type": "bool"
            }
          ],
          "internalType": "struct NFTMarket.MarketItem[]",
          "name": "",
          "type": "tuple[]"
        }
      ],
      "stateMutability": "view",
      "type": "function",
      "constant": true
    },
    {
      "inputs": [],
      "name": "fetchMyNFTs",
      "outputs": [
        {
          "components": [
            {
              "internalType": "uint256",
              "name": "itemId",
              "type": "uint256"
            },
            {
              "internalType": "address",
              "name": "nftContract",
              "type": "address"
            },
            {
              "internalType": "uint256",
              "name": "tokenId",
              "type": "uint256"
            },
            {
              "internalType": "address payable",
              "name": "seller",
              "type": "address"
            },
            {
              "internalType": "address payable",
              "name": "owner",
              "type": "address"
            },
            {
              "internalType": "uint256",
              "name": "price",
              "type": "uint256"
            },
            {
              "internalType": "bool",
              "name": "sold",
              "type": "bool"
            },
            {
              "internalType": "bool",
              "name": "cancelled",
              "type": "bool"
            }
          ],
          "internalType": "struct NFTMarket.MarketItem[]",
          "name": "",
          "type": "tuple[]"
        }
      ],
      "stateMutability": "view",
      "type": "function",
      "constant": true
    },
    {
      "inputs": [],
      "name": "fetchItemsCreated",
      "outputs": [
        {
          "components": [
            {
              "internalType": "uint256",
              "name": "itemId",
              "type": "uint256"
            },
            {
              "internalType": "address",
              "name": "nftContract",
              "type": "address"
            },
            {
              "internalType": "uint256",
              "name": "tokenId",
              "type": "uint256"
            },
            {
              "internalType": "address payable",
              "name": "seller",
              "type": "address"
            },
            {
              "internalType": "address payable",
              "name": "owner",
              "type": "address"
            },
            {
              "internalType": "uint256",
              "name": "price",
              "type": "uint256"
            },
            {
              "internalType": "bool",
              "name": "sold",
              "type": "bool"
            },
            {
              "internalType": "bool",
              "name": "cancelled",
              "type": "bool"
            }
          ],
          "internalType": "struct NFTMarket.MarketItem[]",
          "name": "",
          "type": "tuple[]"
        }
      ],
      "stateMutability": "view",
      "type": "function",
      "constant": true
    },
    {
      "inputs": [],
      "name": "fetchItemsCancelled",
      "outputs": [
        {
          "components": [
            {
              "internalType": "uint256",
              "name": "itemId",
              "type": "uint256"
            },
            {
              "internalType": "address",
              "name": "nftContract",
              "type": "address"
            },
            {
              "internalType": "uint256",
              "name": "tokenId",
              "type": "uint256"
            },
            {
              "internalType": "address payable",
              "name": "seller",
              "type": "address"
            },
            {
              "internalType": "address payable",
              "name": "owner",
              "type": "address"
            },
            {
              "internalType": "uint256",
              "name": "price",
              "type": "uint256"
            },
            {
              "internalType": "bool",
              "name": "sold",
              "type": "bool"
            },
            {
              "internalType": "bool",
              "name": "cancelled",
              "type": "bool"
            }
          ],
          "internalType": "struct NFTMarket.MarketItem[]",
          "name": "",
          "type": "tuple[]"
        }
      ],
      "stateMutability": "view",
      "type": "function",
      "constant": true
    }
  ],
  "bytecode": "0x6658d15e1762800060055560c0604052601460808190527f4e46542053776170204d61726b6574706c61636500000000000000000000000060a09081526200004b9160069190620000a4565b50604080518082019091526003808252624e534d60e81b60209092019182526200007891600791620000a4565b503480156200008657600080fd5b506001600055600480546001600160a01b0319163317905562000187565b828054620000b2906200014a565b90600052602060002090601f016020900481019282620000d6576000855562000121565b82601f10620000f157805160ff191683800117855562000121565b8280016001018555821562000121579182015b828111156200012157825182559160200191906001019062000104565b506200012f92915062000133565b5090565b5b808211156200012f576000815560010162000134565b600181811c908216806200015f57607f821691505b602082108114156200018157634e487b7160e01b600052602260045260246000fd5b50919050565b6116a280620001976000396000f3fe6080604052600436106100a75760003560e01c806358eb2df51161006457806358eb2df51461015757806395d89b411461016a578063c23b139e1461017f578063d8101dcd14610192578063dfe0a9b1146101b2578063f064c32e146101c757600080fd5b806306fdde03146100ac5780630f08efe0146100d757806312e85585146100f95780631dd9cf8614610118578063202e37401461012d5780632851f26314610142575b600080fd5b3480156100b857600080fd5b506100c16101dc565b6040516100ce9190611547565b60405180910390f35b3480156100e357600080fd5b506100ec61026a565b6040516100ce91906114a6565b34801561010557600080fd5b506005545b6040519081526020016100ce565b61012b610126366004611400565b610432565b005b34801561013957600080fd5b506100ec6106ee565b34801561014e57600080fd5b506100ec61094f565b61012b610165366004611429565b610bba565b34801561017657600080fd5b506100c1610e1c565b61012b61018d366004611400565b610e29565b34801561019e57600080fd5b5061012b6101ad36600461145b565b611113565b3480156101be57600080fd5b5061010a611188565b3480156101d357600080fd5b506100ec6111a7565b600680546101e990611600565b80601f016020809104026020016040519081016040528092919081815260200182805461021590611600565b80156102625780601f1061023757610100808354040283529160200191610262565b820191906000526020600020905b81548152906001019060200180831161024557829003601f168201915b505050505081565b6060600061027760015490565b9050600061028460035490565b60025461029191906115d1565b60015461029e91906115e9565b90506000808267ffffffffffffffff8111156102ca57634e487b7160e01b600052604160045260246000fd5b60405190808252806020026020018201604052801561030357816020015b6102f06113a0565b8152602001906001900390816102e85790505b50905060005b848110156104295760006008816103218460016115d1565b81526020810191909152604001600020600401546001600160a01b031614156104175760006103518260016115d1565b600081815260086020908152604091829020825161010080820185528254825260018301546001600160a01b039081169483019490945260028301549482019490945260038201548316606082015260048201549092166080830152600581015460a0830152600681015460ff808216151560c0850152939004909216151560e0820152855192935090918590879081106103fc57634e487b7160e01b600052603260045260246000fd5b60209081029190910101526104126001866115d1565b945050505b806104218161163b565b915050610309565b50949350505050565b6002600054141561045e5760405162461bcd60e51b81526004016104559061159a565b60405180910390fd5b600260008181558281526008602052604090209081015460058201546003909201549091906001600160a01b031633146104ca5760405162461bcd60e51b815260206004820152600d60248201526c2737ba103a34329037bbb732b960991b6044820152606401610455565b6040516323b872dd60e01b8152306004820152336024820152604481018390526001600160a01b038516906323b872dd90606401600060405180830381600087803b15801561051857600080fd5b505af115801561052c573d6000803e3d6000fd5b50505050604051806101000160405280848152602001856001600160a01b0316815260200183815260200160006001600160a01b03168152602001336001600160a01b0316815260200182815260200160001515815260200160011515815250600860008581526020019081526020016000206000820151816000015560208201518160010160006101000a8154816001600160a01b0302191690836001600160a01b031602179055506040820151816002015560608201518160030160006101000a8154816001600160a01b0302191690836001600160a01b0316021790555060808201518160040160006101000a8154816001600160a01b0302191690836001600160a01b0316021790555060a0820151816005015560c08201518160060160006101000a81548160ff02191690831515021790555060e08201518160060160016101000a81548160ff021916908315150217905550905050610695600380546001019055565b81846001600160a01b0316847f862aff375dd5ac17ccb8a8eae529bb7f2f1a03eb02fc95041f099207f65edbbd60003386600060016040516106db959493929190611473565b60405180910390a4505060016000555050565b606060006106fb60015490565b905060008060005b8381101561079257336008600061071b8460016115d1565b81526020810191909152604001600020600401546001600160a01b031614801561076d57506008600061074f8360016115d1565b8152602081019190915260400160002060060154610100900460ff16155b156107805761077d6001846115d1565b92505b8061078a8161163b565b915050610703565b5060008267ffffffffffffffff8111156107bc57634e487b7160e01b600052604160045260246000fd5b6040519080825280602002602001820160405280156107f557816020015b6107e26113a0565b8152602001906001900390816107da5790505b50905060005b848110156104295733600860006108138460016115d1565b81526020810191909152604001600020600401546001600160a01b03161480156108655750600860006108478360016115d1565b8152602081019190915260400160002060060154610100900460ff16155b1561093d5760006108778260016115d1565b600081815260086020908152604091829020825161010080820185528254825260018301546001600160a01b039081169483019490945260028301549482019490945260038201548316606082015260048201549092166080830152600581015460a0830152600681015460ff808216151560c0850152939004909216151560e08201528551929350909185908790811061092257634e487b7160e01b600052603260045260246000fd5b60209081029190910101526109386001866115d1565b945050505b806109478161163b565b9150506107fb565b6060600061095c60015490565b905060008060005b838110156109f857336008600061097c8460016115d1565b81526020810191909152604001600020600401546001600160a01b03161480156109d35750600860006109b08360016115d1565b815260208101919091526040016000206006015460ff6101009091041615156001145b156109e6576109e36001846115d1565b92505b806109f08161163b565b915050610964565b5060008267ffffffffffffffff811115610a2257634e487b7160e01b600052604160045260246000fd5b604051908082528060200260200182016040528015610a5b57816020015b610a486113a0565b815260200190600190039081610a405790505b50905060005b84811015610429573360086000610a798460016115d1565b81526020810191909152604001600020600401546001600160a01b0316148015610ad0575060086000610aad8360016115d1565b815260208101919091526040016000206006015460ff6101009091041615156001145b15610ba8576000610ae28260016115d1565b600081815260086020908152604091829020825161010080820185528254825260018301546001600160a01b039081169483019490945260028301549482019490945260038201548316606082015260048201549092166080830152600581015460a0830152600681015460ff808216151560c0850152939004909216151560e082015285519293509091859087908110610b8d57634e487b7160e01b600052603260045260246000fd5b6020908102919091010152610ba36001866115d1565b945050505b80610bb28161163b565b915050610a61565b60026000541415610bdd5760405162461bcd60e51b81526004016104559061159a565b600260005580610c2f5760405162461bcd60e51b815260206004820152601c60248201527f5072696365206d757374206265206174206c65617374203120776569000000006044820152606401610455565b6005543414610c8c5760405162461bcd60e51b8152602060048201526024808201527f5072696365206d75737420626520657175616c20746f206c697374696e6720706044820152637269636560e01b6064820152608401610455565b610c9a600180546001019055565b6000610ca560015490565b6040805161010080820183528382526001600160a01b0388811660208085018281528587018b81523360608801818152600060808a0181815260a08b018f815260c08c0183815260e08d018481528f85526008909952928d90209b518c55955160018c0180546001600160a01b0319908116928c16929092179055945160028c0155915160038b0180548616918a1691909117905590516004808b0180549095169190981617909255915160058801555160069096018054925161ffff1990931696151561ff001916969096179115159094021790935592516323b872dd60e01b815292830152306024830152604482018690529192506323b872dd90606401600060405180830381600087803b158015610dbf57600080fd5b505af1158015610dd3573d6000803e3d6000fd5b5050505082846001600160a01b0316827fc99151f4453170a67bc7441775fde1a3bc3220c06645df1121e703aab5e7da5d336000876000806040516106db959493929190611473565b600780546101e990611600565b60026000541415610e4c5760405162461bcd60e51b81526004016104559061159a565b60026000818155828152600860205260409020600581015491015433610e7157600080fd5b6000838152600860205260409020600301546001600160a01b0316331415610edb5760405162461bcd60e51b815260206004820152601b60248201527f4f776e6572206f776e7320746865206974656d20616c726561647900000000006044820152606401610455565b3331821115610f2c5760405162461bcd60e51b815260206004820152601b60248201527f4e6f7420656e6f7567682066756e647320696e2062616c616e636500000000006044820152606401610455565b813414610fa3576040805162461bcd60e51b81526020600482015260248101919091527f506c65617365207375626d6974207468652061736b696e67207072696365206960448201527f6e206f7264657220746f20636f6d706c657465207468652070757263686173656064820152608401610455565b6000838152600860205260408082206003015490516001600160a01b03909116913480156108fc02929091818181858888f19350505050158015610feb573d6000803e3d6000fd5b506040516323b872dd60e01b8152306004820152336024820152604481018290526001600160a01b038516906323b872dd90606401600060405180830381600087803b15801561103a57600080fd5b505af115801561104e573d6000803e3d6000fd5b50505060008481526008602052604090206004810180546001600160a01b03191633179055600601805460ff1916600117905550611090600280546001019055565b6004546005546040516001600160a01b039092169181156108fc0291906000818181858888f193505050501580156110cc573d6000803e3d6000fd5b5080846001600160a01b0316847f21ec0c27f057e34383c81cc7362e0debc70fb0b7c773884c213d41a9ef17370b60003387600160006040516106db959493929190611473565b6000818152600860205260409020600401546001600160a01b0316331461116c5760405162461bcd60e51b815260206004820152600d60248201526c2737ba103a34329037bbb732b960991b6044820152606401610455565b6000908152600860205260409020600601805461ff0019169055565b60008061119460015490565b90506111a18160016115d1565b91505090565b606060006111b460015490565b905060008060005b838110156112175733600860006111d48460016115d1565b81526020810191909152604001600020600301546001600160a01b03161415611205576112026001846115d1565b92505b8061120f8161163b565b9150506111bc565b5060008267ffffffffffffffff81111561124157634e487b7160e01b600052604160045260246000fd5b60405190808252806020026020018201604052801561127a57816020015b6112676113a0565b81526020019060019003908161125f5790505b50905060005b848110156104295733600860006112988460016115d1565b81526020810191909152604001600020600301546001600160a01b0316141561138e5760006112c88260016115d1565b600081815260086020908152604091829020825161010080820185528254825260018301546001600160a01b039081169483019490945260028301549482019490945260038201548316606082015260048201549092166080830152600581015460a0830152600681015460ff808216151560c0850152939004909216151560e08201528551929350909185908790811061137357634e487b7160e01b600052603260045260246000fd5b60209081029190910101526113896001866115d1565b945050505b806113988161163b565b915050611280565b6040805161010081018252600080825260208201819052918101829052606081018290526080810182905260a0810182905260c0810182905260e081019190915290565b80356001600160a01b03811681146113fb57600080fd5b919050565b60008060408385031215611412578182fd5b61141b836113e4565b946020939093013593505050565b60008060006060848603121561143d578081fd5b611446846113e4565b95602085013595506040909401359392505050565b60006020828403121561146c578081fd5b5035919050565b6001600160a01b039586168152939094166020840152604083019190915215156060820152901515608082015260a00190565b602080825282518282018190526000919060409081850190868401855b8281101561153a57815180518552868101516001600160a01b039081168887015286820151878701526060808301518216908701526080808301519091169086015260a0808201519086015260c08082015115159086015260e09081015115159085015261010090930192908501906001016114c3565b5091979650505050505050565b6000602080835283518082850152825b8181101561157357858101830151858201604001528201611557565b818111156115845783604083870101525b50601f01601f1916929092016040019392505050565b6020808252601f908201527f5265656e7472616e637947756172643a207265656e7472616e742063616c6c00604082015260600190565b600082198211156115e4576115e4611656565b500190565b6000828210156115fb576115fb611656565b500390565b600181811c9082168061161457607f821691505b6020821081141561163557634e487b7160e01b600052602260045260246000fd5b50919050565b600060001982141561164f5761164f611656565b5060010190565b634e487b7160e01b600052601160045260246000fdfea2646970667358221220fd12247cfa25bc2b3f5696b80c6b8814798b1b35a3caca82b56b132d4450f5ef64736f6c63430008040033",
  "immutableReferences": {},
  "source": "//SPDX-License-Identifier: MIT\n\npragma solidity ^0.8.4;\n\nimport '@openzeppelin/contracts/token/ERC721/ERC721.sol';\nimport '@openzeppelin/contracts/utils/Counters.sol';\nimport '@openzeppelin/contracts/security/ReentrancyGuard.sol';\n\ncontract NFTMarket is ReentrancyGuard {\n  using Counters for Counters.Counter;\n  Counters.Counter private _itemIds;\n  Counters.Counter private _itemsSold;\n  Counters.Counter private _itemsCancelled;\n\n  address payable owner;\n  uint256 listingPrice = 0.025 ether;\n  string public name = 'NFT Swap Marketplace';\n  string public symbol = 'NSM';\n\n  constructor() {\n    owner = payable(msg.sender);\n  }\n\n  struct MarketItem {\n    uint256 itemId;\n    address nftContract;\n    uint256 tokenId;\n    address payable seller;\n    address payable owner;\n    uint256 price;\n    bool sold;\n    bool cancelled;\n  }\n\n  mapping(uint256 => MarketItem) private idToMarketItem;\n\n  event MarketItemCreated(\n    uint256 indexed itemId,\n    address indexed nftContract,\n    uint256 indexed tokenId,\n    address seller,\n    address owner,\n    uint256 price,\n    bool sold,\n    bool cancelled\n  );\n\n  event MarketItemSold(\n    uint256 indexed itemId,\n    address indexed nftContract,\n    uint256 indexed tokenId,\n    address seller,\n    address owner,\n    uint256 price,\n    bool sold,\n    bool cancelled\n  );\n\n  event MarketItemCancelled(\n    uint256 indexed itemId,\n    address indexed nftContract,\n    uint256 indexed tokenId,\n    address seller,\n    address owner,\n    uint256 price,\n    bool sold,\n    bool cancelled\n  );\n\n  /* Returns the current itemId count */\n  function currentItemId() external view returns (uint256) {\n    uint256 itemId = _itemIds.current();\n    return itemId + 1;\n  }\n\n  /* Returns the listing price of the contract */\n  function getListingPrice() public view returns (uint256) {\n    return listingPrice;\n  }\n\n  /* Places an item for sale on the marketplace */\n  function createMarketItem(\n    address nftContract,\n    uint256 tokenId,\n    uint256 price\n  ) public payable nonReentrant {\n    require(price > 0, 'Price must be at least 1 wei');\n    require(msg.value == listingPrice, 'Price must be equal to listing price');\n\n    _itemIds.increment();\n    uint256 itemId = _itemIds.current();\n\n    idToMarketItem[itemId] = MarketItem(\n      itemId,\n      nftContract,\n      tokenId,\n      payable(msg.sender),\n      payable(address(0)),\n      price,\n      false,\n      false\n    );\n\n    IERC721(nftContract).transferFrom(msg.sender, address(this), tokenId);\n\n    emit MarketItemCreated(\n      itemId,\n      nftContract,\n      tokenId,\n      msg.sender,\n      address(0),\n      price,\n      false,\n      false\n    );\n  }\n\n  /* Creates the sale of a marketplace item */\n  /* Transfers ownership of the item, as well as funds between parties */\n  function createMarketSale(address nftContract, uint256 itemId)\n    public\n    payable\n    nonReentrant\n  {\n    uint256 price = idToMarketItem[itemId].price;\n    uint256 tokenId = idToMarketItem[itemId].tokenId;\n    require(msg.sender != address(0));\n    require(\n      msg.sender != idToMarketItem[itemId].seller,\n      'Owner owns the item already'\n    );\n    require(msg.sender.balance >= price, 'Not enough funds in balance');\n    require(\n      msg.value == price,\n      'Please submit the asking price in order to complete the purchase'\n    );\n\n    idToMarketItem[itemId].seller.transfer(msg.value);\n    IERC721(nftContract).transferFrom(address(this), msg.sender, tokenId);\n    idToMarketItem[itemId].owner = payable(msg.sender);\n    idToMarketItem[itemId].sold = true;\n    _itemsSold.increment();\n    payable(owner).transfer(listingPrice);\n\n    emit MarketItemSold(\n      itemId,\n      nftContract,\n      tokenId,\n      address(0),\n      msg.sender,\n      price,\n      true,\n      false\n    );\n  }\n\n  function cancelMarketSale(address nftContract, uint256 itemId)\n    public\n    payable\n    nonReentrant\n  {\n    uint256 tokenId = idToMarketItem[itemId].tokenId;\n    uint256 price = idToMarketItem[itemId].price;\n    require(msg.sender == idToMarketItem[itemId].seller, 'Not the owner');\n\n    IERC721(nftContract).transferFrom(address(this), msg.sender, tokenId);\n\n    idToMarketItem[itemId] = MarketItem(\n      itemId,\n      nftContract,\n      tokenId,\n      payable(address(0)),\n      payable(msg.sender),\n      price,\n      false,\n      true\n    );\n\n    _itemsCancelled.increment();\n\n    emit MarketItemCancelled(\n      itemId,\n      nftContract,\n      tokenId,\n      address(0),\n      msg.sender,\n      price,\n      false,\n      true\n    );\n  }\n\n  /* Allows the resale of a cancelled NFT*/\n  function resellItem(uint256 itemId) external {\n    require(msg.sender == idToMarketItem[itemId].owner, 'Not the owner');\n    idToMarketItem[itemId].cancelled = false;\n  }\n\n  /* Returns all unsold market items */\n  function fetchMarketItems() public view returns (MarketItem[] memory) {\n    uint256 itemCount = _itemIds.current();\n    uint256 unsoldItemCount = _itemIds.current() -\n      (_itemsSold.current() + _itemsCancelled.current());\n    uint256 currentIndex = 0;\n\n    MarketItem[] memory items = new MarketItem[](unsoldItemCount);\n    for (uint256 i = 0; i < itemCount; i++) {\n      if (idToMarketItem[i + 1].owner == address(0)) {\n        uint256 currentId = i + 1;\n        MarketItem storage currentItem = idToMarketItem[currentId];\n        items[currentIndex] = currentItem;\n        currentIndex += 1;\n      }\n    }\n    return items;\n  }\n\n  /* Returns only items that a user has purchased */\n  function fetchMyNFTs() public view returns (MarketItem[] memory) {\n    uint256 totalItemCount = _itemIds.current();\n    uint256 itemCount = 0;\n    uint256 currentIndex = 0;\n\n    for (uint256 i = 0; i < totalItemCount; i++) {\n      if (\n        idToMarketItem[i + 1].owner == msg.sender &&\n        idToMarketItem[i + 1].cancelled == false\n      ) {\n        itemCount += 1;\n      }\n    }\n\n    MarketItem[] memory items = new MarketItem[](itemCount);\n    for (uint256 i = 0; i < totalItemCount; i++) {\n      if (\n        idToMarketItem[i + 1].owner == msg.sender &&\n        idToMarketItem[i + 1].cancelled == false\n      ) {\n        uint256 currentId = i + 1;\n        MarketItem storage currentItem = idToMarketItem[currentId];\n        items[currentIndex] = currentItem;\n        currentIndex += 1;\n      }\n    }\n    return items;\n  }\n\n  /* Returns only items a user has created */\n  function fetchItemsCreated() public view returns (MarketItem[] memory) {\n    uint256 totalItemCount = _itemIds.current();\n    uint256 itemCount = 0;\n    uint256 currentIndex = 0;\n\n    for (uint256 i = 0; i < totalItemCount; i++) {\n      if (idToMarketItem[i + 1].seller == msg.sender) {\n        itemCount += 1;\n      }\n    }\n\n    MarketItem[] memory items = new MarketItem[](itemCount);\n    for (uint256 i = 0; i < totalItemCount; i++) {\n      if (idToMarketItem[i + 1].seller == msg.sender) {\n        uint256 currentId = i + 1;\n        MarketItem storage currentItem = idToMarketItem[currentId];\n        items[currentIndex] = currentItem;\n        currentIndex += 1;\n      }\n    }\n    return items;\n  }\n\n  /* Returns only items a user has cancelled */\n  function fetchItemsCancelled() public view returns (MarketItem[] memory) {\n    uint256 totalItemCount = _itemIds.current();\n    uint256 itemCount = 0;\n    uint256 currentIndex = 0;\n\n    for (uint256 i = 0; i < totalItemCount; i++) {\n      if (\n        idToMarketItem[i + 1].owner == msg.sender &&\n        idToMarketItem[i + 1].cancelled == true\n      ) {\n        itemCount += 1;\n      }\n    }\n\n    MarketItem[] memory items = new MarketItem[](itemCount);\n    for (uint256 i = 0; i < totalItemCount; i++) {\n      if (\n        idToMarketItem[i + 1].owner == msg.sender &&\n        idToMarketItem[i + 1].cancelled == true\n      ) {\n        uint256 currentId = i + 1;\n        MarketItem storage currentItem = idToMarketItem[currentId];\n        items[currentIndex] = currentItem;\n        currentIndex += 1;\n      }\n    }\n    return items;\n  }\n}\n",
  "sourcePath": "/Users/jamieanderson/Projects/portfolio/nft-marketplace/contracts/NFTMarket.sol",
  "compiler": {
    "name": "solc",
    "version": "0.8.4+commit.c7e474f2.Emscripten.clang"
  },
  "schemaVersion": "3.4.1",
  "updatedAt": "2021-11-21T01:27:06.864Z",
  "networkType": "ethereum",
  "devdoc": {
    "kind": "dev",
    "methods": {},
    "version": 1
  },
  "userdoc": {
    "kind": "user",
    "methods": {},
    "version": 1
  }
}